:100000000C9457000C9469000C9469000C946900DE
:100010000C9469000C9469000C9469000C946900BC
:100020000C9469000C9469000C9469000C946900AC
:100030000C9469000C9469000C9469000C9469009C
:100040000C9417010C9469000C9469000C946900DD
:100050000C9469000C9469000C9469000C9469007C
:100060000C9469000C946900000000002500280031
:100070002B00040404040404040402020202020229
:10008000030303030303010204081020408001025C
:1000900004081020010204081020000000080002DB
:1000A000010000030407000000000000000011240C
:1000B0001FBECFEFD8E0DEBFCDBF21E0A0E0B1E0B2
:1000C00001C01D92A930B207E1F70E9461010C94B2
:1000D0004C020C94000090E0FC01E656FF4F249186
:1000E000FC01EA57FF4F3491FC01EE58FF4FE491B9
:1000F000EE2309F43CC0222339F1233091F038F487
:100100002130A9F0223001F584B58F7D12C027304F
:1001100091F02830A1F02430B9F4809180008F7DD7
:1001200003C0809180008F77809380000DC084B5DC
:100130008F7784BD09C08091B0008F7703C0809114
:10014000B0008F7D8093B000F0E0EE0FFF1FE85904
:10015000FF4FA591B4919FB7F894611104C08C91A1
:100160003095382302C0EC913E2B3C939FBF0895FD
:100170003FB7F8948091050190910601A091070185
:10018000B091080126B5A89B05C02F3F19F0019634
:10019000A11DB11D3FBFBA2FA92F982F8827820F0D
:1001A000911DA11DB11DBC01CD0142E0660F771F5D
:1001B000881F991F4A95D1F708958F929F92AF9209
:1001C000BF92CF92DF92EF92FF926B017C010E946F
:1001D000B8004B015C01C114D104E104F104F1F059
:1001E0000E94B800DC01CB0188199909AA09BB0952
:1001F000883E9340A105B10570F321E0C21AD108F1
:10020000E108F10888EE880E83E0981EA11CB11C5D
:10021000C114D104E104F10419F7DDCFFF90EF9090
:10022000DF90CF90BF90AF909F908F9008951F92D6
:100230000F920FB60F9211242F933F938F939F939A
:10024000AF93BF938091010190910201A0910301AE
:10025000B09104013091000123E0230F2D3720F4E9
:100260000196A11DB11D05C026E8230F0296A11D10
:10027000B11D209300018093010190930201A0938E
:100280000301B09304018091050190910601A091B2
:100290000701B09108010196A11DB11D80930501D0
:1002A00090930601A0930701B0930801BF91AF910D
:1002B0009F918F913F912F910F900FBE0F901F90A4
:1002C0001895789484B5826084BD84B5816084BDBE
:1002D00085B5826085BD85B5816085BD80916E00E4
:1002E000816080936E001092810080918100826015
:1002F0008093810080918100816080938100809152
:1003000080008160809380008091B1008460809340
:10031000B1008091B00081608093B00080917A003C
:10032000846080937A0080917A00826080937A0062
:1003300080917A00816080937A0080917A00806851
:1003400080937A001092C1008EEF8AB98FE384B94E
:10035000C0E0D0E061E081E00E946B0061E084E0F9
:100360000E946B0068E873E180E090E00E94DD008D
:1003700060E081E00E946B0060E084E00E946B001E
:1003800060E971E080E090E00E94DD0061E082E0E1
:100390000E946B0061E085E00E946B0068EB7BE0EF
:1003A00080E090E00E94DD0060E082E00E946B004F
:1003B00060E085E00E946B0060E971E080E090E021
:1003C0000E94DD0061E083E00E946B0061E086E056
:1003D0000E946B0068E873E180E090E00E94DD001D
:1003E00060E083E00E946B0060E086E00E946B00AA
:1003F00061E087E00E946B0061E08AE00E946B0090
:1004000068E873E180E090E00E94DD0060E087E052
:100410000E946B0060E08AE00E946B0060E971E07E
:1004200080E090E00E94DD0061E088E00E946B00C7
:1004300061E08BE00E946B0068EB7BE080E090E085
:100440000E94DD0060E088E00E946B0060E08BE0CD
:100450000E946B0060E971E080E090E00E94DD00A6
:1004600061E089E00E946B0061E08CE00E946B001B
:1004700068E873E180E090E00E94DD0060E089E0E0
:100480000E946B0060E08CE00E946B00209709F4F2
:0C04900061CF0E9400005ECFF894FFCF07
:00000001FF
